{
  "_format": "hh-sol-artifact-1",
  "contractName": "GolfPunks",
  "sourceName": "contracts/GolfPunks.sol",
  "abi": [
    {
      "inputs": [],
      "stateMutability": "nonpayable",
      "type": "constructor"
    },
    {
      "anonymous": false,
      "inputs": [
        {
          "indexed": true,
          "internalType": "address",
          "name": "owner",
          "type": "address"
        },
        {
          "indexed": true,
          "internalType": "address",
          "name": "approved",
          "type": "address"
        },
        {
          "indexed": true,
          "internalType": "uint256",
          "name": "tokenId",
          "type": "uint256"
        }
      ],
      "name": "Approval",
      "type": "event"
    },
    {
      "anonymous": false,
      "inputs": [
        {
          "indexed": true,
          "internalType": "address",
          "name": "owner",
          "type": "address"
        },
        {
          "indexed": true,
          "internalType": "address",
          "name": "operator",
          "type": "address"
        },
        {
          "indexed": false,
          "internalType": "bool",
          "name": "approved",
          "type": "bool"
        }
      ],
      "name": "ApprovalForAll",
      "type": "event"
    },
    {
      "anonymous": false,
      "inputs": [
        {
          "indexed": false,
          "internalType": "address",
          "name": "account",
          "type": "address"
        }
      ],
      "name": "Paused",
      "type": "event"
    },
    {
      "anonymous": false,
      "inputs": [
        {
          "indexed": true,
          "internalType": "bytes32",
          "name": "role",
          "type": "bytes32"
        },
        {
          "indexed": true,
          "internalType": "bytes32",
          "name": "previousAdminRole",
          "type": "bytes32"
        },
        {
          "indexed": true,
          "internalType": "bytes32",
          "name": "newAdminRole",
          "type": "bytes32"
        }
      ],
      "name": "RoleAdminChanged",
      "type": "event"
    },
    {
      "anonymous": false,
      "inputs": [
        {
          "indexed": true,
          "internalType": "bytes32",
          "name": "role",
          "type": "bytes32"
        },
        {
          "indexed": true,
          "internalType": "address",
          "name": "account",
          "type": "address"
        },
        {
          "indexed": true,
          "internalType": "address",
          "name": "sender",
          "type": "address"
        }
      ],
      "name": "RoleGranted",
      "type": "event"
    },
    {
      "anonymous": false,
      "inputs": [
        {
          "indexed": true,
          "internalType": "bytes32",
          "name": "role",
          "type": "bytes32"
        },
        {
          "indexed": true,
          "internalType": "address",
          "name": "account",
          "type": "address"
        },
        {
          "indexed": true,
          "internalType": "address",
          "name": "sender",
          "type": "address"
        }
      ],
      "name": "RoleRevoked",
      "type": "event"
    },
    {
      "anonymous": false,
      "inputs": [
        {
          "indexed": true,
          "internalType": "address",
          "name": "from",
          "type": "address"
        },
        {
          "indexed": true,
          "internalType": "address",
          "name": "to",
          "type": "address"
        },
        {
          "indexed": true,
          "internalType": "uint256",
          "name": "tokenId",
          "type": "uint256"
        }
      ],
      "name": "Transfer",
      "type": "event"
    },
    {
      "anonymous": false,
      "inputs": [
        {
          "indexed": false,
          "internalType": "address",
          "name": "account",
          "type": "address"
        }
      ],
      "name": "Unpaused",
      "type": "event"
    },
    {
      "inputs": [],
      "name": "DEFAULT_ADMIN_ROLE",
      "outputs": [
        {
          "internalType": "bytes32",
          "name": "",
          "type": "bytes32"
        }
      ],
      "stateMutability": "view",
      "type": "function"
    },
    {
      "inputs": [],
      "name": "MINTER_ROLE",
      "outputs": [
        {
          "internalType": "bytes32",
          "name": "",
          "type": "bytes32"
        }
      ],
      "stateMutability": "view",
      "type": "function"
    },
    {
      "inputs": [],
      "name": "PAUSER_ROLE",
      "outputs": [
        {
          "internalType": "bytes32",
          "name": "",
          "type": "bytes32"
        }
      ],
      "stateMutability": "view",
      "type": "function"
    },
    {
      "inputs": [
        {
          "internalType": "address",
          "name": "to",
          "type": "address"
        },
        {
          "internalType": "uint256",
          "name": "tokenId",
          "type": "uint256"
        }
      ],
      "name": "approve",
      "outputs": [],
      "stateMutability": "nonpayable",
      "type": "function"
    },
    {
      "inputs": [
        {
          "internalType": "address",
          "name": "owner",
          "type": "address"
        }
      ],
      "name": "balanceOf",
      "outputs": [
        {
          "internalType": "uint256",
          "name": "",
          "type": "uint256"
        }
      ],
      "stateMutability": "view",
      "type": "function"
    },
    {
      "inputs": [
        {
          "internalType": "uint256",
          "name": "tokenId",
          "type": "uint256"
        }
      ],
      "name": "burn",
      "outputs": [],
      "stateMutability": "nonpayable",
      "type": "function"
    },
    {
      "inputs": [
        {
          "internalType": "uint256",
          "name": "tokenId",
          "type": "uint256"
        }
      ],
      "name": "getApproved",
      "outputs": [
        {
          "internalType": "address",
          "name": "",
          "type": "address"
        }
      ],
      "stateMutability": "view",
      "type": "function"
    },
    {
      "inputs": [],
      "name": "getName",
      "outputs": [
        {
          "internalType": "string",
          "name": "name",
          "type": "string"
        }
      ],
      "stateMutability": "view",
      "type": "function"
    },
    {
      "inputs": [
        {
          "internalType": "bytes32",
          "name": "role",
          "type": "bytes32"
        }
      ],
      "name": "getRoleAdmin",
      "outputs": [
        {
          "internalType": "bytes32",
          "name": "",
          "type": "bytes32"
        }
      ],
      "stateMutability": "view",
      "type": "function"
    },
    {
      "inputs": [
        {
          "internalType": "bytes32",
          "name": "role",
          "type": "bytes32"
        },
        {
          "internalType": "uint256",
          "name": "index",
          "type": "uint256"
        }
      ],
      "name": "getRoleMember",
      "outputs": [
        {
          "internalType": "address",
          "name": "",
          "type": "address"
        }
      ],
      "stateMutability": "view",
      "type": "function"
    },
    {
      "inputs": [
        {
          "internalType": "bytes32",
          "name": "role",
          "type": "bytes32"
        }
      ],
      "name": "getRoleMemberCount",
      "outputs": [
        {
          "internalType": "uint256",
          "name": "",
          "type": "uint256"
        }
      ],
      "stateMutability": "view",
      "type": "function"
    },
    {
      "inputs": [
        {
          "internalType": "bytes32",
          "name": "role",
          "type": "bytes32"
        },
        {
          "internalType": "address",
          "name": "account",
          "type": "address"
        }
      ],
      "name": "grantRole",
      "outputs": [],
      "stateMutability": "nonpayable",
      "type": "function"
    },
    {
      "inputs": [
        {
          "internalType": "bytes32",
          "name": "role",
          "type": "bytes32"
        },
        {
          "internalType": "address",
          "name": "account",
          "type": "address"
        }
      ],
      "name": "hasRole",
      "outputs": [
        {
          "internalType": "bool",
          "name": "",
          "type": "bool"
        }
      ],
      "stateMutability": "view",
      "type": "function"
    },
    {
      "inputs": [
        {
          "internalType": "address",
          "name": "owner",
          "type": "address"
        },
        {
          "internalType": "address",
          "name": "operator",
          "type": "address"
        }
      ],
      "name": "isApprovedForAll",
      "outputs": [
        {
          "internalType": "bool",
          "name": "",
          "type": "bool"
        }
      ],
      "stateMutability": "view",
      "type": "function"
    },
    {
      "inputs": [
        {
          "internalType": "address",
          "name": "to",
          "type": "address"
        }
      ],
      "name": "mint",
      "outputs": [],
      "stateMutability": "nonpayable",
      "type": "function"
    },
    {
      "inputs": [],
      "name": "name",
      "outputs": [
        {
          "internalType": "string",
          "name": "",
          "type": "string"
        }
      ],
      "stateMutability": "view",
      "type": "function"
    },
    {
      "inputs": [
        {
          "internalType": "uint256",
          "name": "tokenId",
          "type": "uint256"
        }
      ],
      "name": "ownerOf",
      "outputs": [
        {
          "internalType": "address",
          "name": "",
          "type": "address"
        }
      ],
      "stateMutability": "view",
      "type": "function"
    },
    {
      "inputs": [],
      "name": "pause",
      "outputs": [],
      "stateMutability": "nonpayable",
      "type": "function"
    },
    {
      "inputs": [],
      "name": "paused",
      "outputs": [
        {
          "internalType": "bool",
          "name": "",
          "type": "bool"
        }
      ],
      "stateMutability": "view",
      "type": "function"
    },
    {
      "inputs": [
        {
          "internalType": "bytes32",
          "name": "role",
          "type": "bytes32"
        },
        {
          "internalType": "address",
          "name": "account",
          "type": "address"
        }
      ],
      "name": "renounceRole",
      "outputs": [],
      "stateMutability": "nonpayable",
      "type": "function"
    },
    {
      "inputs": [
        {
          "internalType": "bytes32",
          "name": "role",
          "type": "bytes32"
        },
        {
          "internalType": "address",
          "name": "account",
          "type": "address"
        }
      ],
      "name": "revokeRole",
      "outputs": [],
      "stateMutability": "nonpayable",
      "type": "function"
    },
    {
      "inputs": [
        {
          "internalType": "address",
          "name": "from",
          "type": "address"
        },
        {
          "internalType": "address",
          "name": "to",
          "type": "address"
        },
        {
          "internalType": "uint256",
          "name": "tokenId",
          "type": "uint256"
        }
      ],
      "name": "safeTransferFrom",
      "outputs": [],
      "stateMutability": "nonpayable",
      "type": "function"
    },
    {
      "inputs": [
        {
          "internalType": "address",
          "name": "from",
          "type": "address"
        },
        {
          "internalType": "address",
          "name": "to",
          "type": "address"
        },
        {
          "internalType": "uint256",
          "name": "tokenId",
          "type": "uint256"
        },
        {
          "internalType": "bytes",
          "name": "_data",
          "type": "bytes"
        }
      ],
      "name": "safeTransferFrom",
      "outputs": [],
      "stateMutability": "nonpayable",
      "type": "function"
    },
    {
      "inputs": [
        {
          "internalType": "address",
          "name": "operator",
          "type": "address"
        },
        {
          "internalType": "bool",
          "name": "approved",
          "type": "bool"
        }
      ],
      "name": "setApprovalForAll",
      "outputs": [],
      "stateMutability": "nonpayable",
      "type": "function"
    },
    {
      "inputs": [
        {
          "internalType": "bytes4",
          "name": "interfaceId",
          "type": "bytes4"
        }
      ],
      "name": "supportsInterface",
      "outputs": [
        {
          "internalType": "bool",
          "name": "",
          "type": "bool"
        }
      ],
      "stateMutability": "view",
      "type": "function"
    },
    {
      "inputs": [],
      "name": "symbol",
      "outputs": [
        {
          "internalType": "string",
          "name": "",
          "type": "string"
        }
      ],
      "stateMutability": "view",
      "type": "function"
    },
    {
      "inputs": [
        {
          "internalType": "uint256",
          "name": "index",
          "type": "uint256"
        }
      ],
      "name": "tokenByIndex",
      "outputs": [
        {
          "internalType": "uint256",
          "name": "",
          "type": "uint256"
        }
      ],
      "stateMutability": "view",
      "type": "function"
    },
    {
      "inputs": [
        {
          "internalType": "address",
          "name": "owner",
          "type": "address"
        },
        {
          "internalType": "uint256",
          "name": "index",
          "type": "uint256"
        }
      ],
      "name": "tokenOfOwnerByIndex",
      "outputs": [
        {
          "internalType": "uint256",
          "name": "",
          "type": "uint256"
        }
      ],
      "stateMutability": "view",
      "type": "function"
    },
    {
      "inputs": [
        {
          "internalType": "uint256",
          "name": "tokenId",
          "type": "uint256"
        }
      ],
      "name": "tokenURI",
      "outputs": [
        {
          "internalType": "string",
          "name": "",
          "type": "string"
        }
      ],
      "stateMutability": "view",
      "type": "function"
    },
    {
      "inputs": [],
      "name": "totalSupply",
      "outputs": [
        {
          "internalType": "uint256",
          "name": "",
          "type": "uint256"
        }
      ],
      "stateMutability": "view",
      "type": "function"
    },
    {
      "inputs": [
        {
          "internalType": "address",
          "name": "from",
          "type": "address"
        },
        {
          "internalType": "address",
          "name": "to",
          "type": "address"
        },
        {
          "internalType": "uint256",
          "name": "tokenId",
          "type": "uint256"
        }
      ],
      "name": "transferFrom",
      "outputs": [],
      "stateMutability": "nonpayable",
      "type": "function"
    },
    {
      "inputs": [],
      "name": "unpause",
      "outputs": [],
      "stateMutability": "nonpayable",
      "type": "function"
    }
  ],
  "bytecode": "0x60806040523480156200001157600080fd5b506040518060400160405280600981526020017f476f6c6650756e6b7300000000000000000000000000000000000000000000008152506040518060400160405280600281526020017f475000000000000000000000000000000000000000000000000000000000000081525060405180606001604052806030815260200162004f226030913982828160029080519060200190620000b292919062000447565b508060039080519060200190620000cb92919062000447565b5050506000600c60006101000a81548160ff02191690831515021790555080600e90805190602001906200010192919062000447565b50620001266000801b6200011a620001b160201b60201c565b620001b960201b60201c565b620001677f9f2df0fed2c77648de5860a4cc508cd0818c85b8b8a1ab4ceeef8d981c8956a66200015b620001b160201b60201c565b620001b960201b60201c565b620001a87f65d7a28e3265b37a6474929f336521b332c1681b933f6cb9f3376673440d862a6200019c620001b160201b60201c565b620001b960201b60201c565b5050506200055c565b600033905090565b620001cb8282620001cf60201b60201c565b5050565b620001e682826200021760201b620012381760201c565b6200021281600160008581526020019081526020016000206200030860201b620013181790919060201c565b505050565b6200022982826200034060201b60201c565b6200030457600160008084815260200190815260200160002060000160008373ffffffffffffffffffffffffffffffffffffffff1673ffffffffffffffffffffffffffffffffffffffff16815260200190815260200160002060006101000a81548160ff021916908315150217905550620002a9620001b160201b60201c565b73ffffffffffffffffffffffffffffffffffffffff168173ffffffffffffffffffffffffffffffffffffffff16837f2f8788117e7eff1d82e926ec794901d17c78024a50270940304540a733656f0d60405160405180910390a45b5050565b600062000338836000018373ffffffffffffffffffffffffffffffffffffffff1660001b620003aa60201b60201c565b905092915050565b600080600084815260200190815260200160002060000160008373ffffffffffffffffffffffffffffffffffffffff1673ffffffffffffffffffffffffffffffffffffffff16815260200190815260200160002060009054906101000a900460ff16905092915050565b6000620003be83836200042460201b60201c565b620004195782600001829080600181540180825580915050600190039060005260206000200160009091909190915055826000018054905083600101600084815260200190815260200160002081905550600190506200041e565b600090505b92915050565b600080836001016000848152602001908152602001600020541415905092915050565b8280546200045590620004f7565b90600052602060002090601f016020900481019282620004795760008555620004c5565b82601f106200049457805160ff1916838001178555620004c5565b82800160010185558215620004c5579182015b82811115620004c4578251825591602001919060010190620004a7565b5b509050620004d49190620004d8565b5090565b5b80821115620004f3576000816000905550600101620004d9565b5090565b600060028204905060018216806200051057607f821691505b602082108114156200052757620005266200052d565b5b50919050565b7f4e487b7100000000000000000000000000000000000000000000000000000000600052602260045260246000fd5b6149b6806200056c6000396000f3fe608060405234801561001057600080fd5b50600436106101f05760003560e01c80636352211e1161010f578063a22cb465116100a2578063d539139311610071578063d5391393146105c9578063d547741f146105e7578063e63ab1e914610603578063e985e9c514610621576101f0565b8063a22cb46514610531578063b88d4fde1461054d578063c87b56dd14610569578063ca15c87314610599576101f0565b80639010d07c116100de5780639010d07c1461049557806391d14854146104c557806395d89b41146104f5578063a217fddf14610513576101f0565b80636352211e1461040f5780636a6278421461043f57806370a082311461045b5780638456cb591461048b576101f0565b80632f2ff15d1161018757806342842e0e1161015657806342842e0e1461038957806342966c68146103a55780634f6ccce7146103c15780635c975abb146103f1576101f0565b80632f2ff15d146103175780632f745c591461033357806336568abe146103635780633f4ba83a1461037f576101f0565b806317d7de7c116101c357806317d7de7c1461028f57806318160ddd146102ad57806323b872dd146102cb578063248a9ca3146102e7576101f0565b806301ffc9a7146101f557806306fdde0314610225578063081812fc14610243578063095ea7b314610273575b600080fd5b61020f600480360381019061020a919061353c565b610651565b60405161021c919061412e565b60405180910390f35b61022d610663565b60405161023a9190614164565b60405180910390f35b61025d600480360381019061025891906135cf565b6106f5565b60405161026a91906140c7565b60405180910390f35b61028d6004803603810190610288919061345f565b61077a565b005b610297610892565b6040516102a49190614164565b60405180910390f35b6102b561091c565b6040516102c291906144a6565b60405180910390f35b6102e560048036038101906102e09190613359565b610929565b005b61030160048036038101906102fc919061349b565b610989565b60405161030e9190614149565b60405180910390f35b610331600480360381019061032c91906134c4565b6109a8565b005b61034d6004803603810190610348919061345f565b6109d1565b60405161035a91906144a6565b60405180910390f35b61037d600480360381019061037891906134c4565b610a76565b005b610387610af9565b005b6103a3600480360381019061039e9190613359565b610b73565b005b6103bf60048036038101906103ba91906135cf565b610b93565b005b6103db60048036038101906103d691906135cf565b610bef565b6040516103e891906144a6565b60405180910390f35b6103f9610c86565b604051610406919061412e565b60405180910390f35b610429600480360381019061042491906135cf565b610c9d565b60405161043691906140c7565b60405180910390f35b610459600480360381019061045491906132f4565b610d4f565b005b610475600480360381019061047091906132f4565b610d8c565b60405161048291906144a6565b60405180910390f35b610493610e44565b005b6104af60048036038101906104aa9190613500565b610ebe565b6040516104bc91906140c7565b60405180910390f35b6104df60048036038101906104da91906134c4565b610eed565b6040516104ec919061412e565b60405180910390f35b6104fd610f57565b60405161050a9190614164565b60405180910390f35b61051b610fe9565b6040516105289190614149565b60405180910390f35b61054b60048036038101906105469190613423565b610ff0565b005b610567600480360381019061056291906133a8565b611006565b005b610583600480360381019061057e91906135cf565b611068565b6040516105909190614164565b60405180910390f35b6105b360048036038101906105ae919061349b565b61110f565b6040516105c091906144a6565b60405180910390f35b6105d1611133565b6040516105de9190614149565b60405180910390f35b61060160048036038101906105fc91906134c4565b611157565b005b61060b611180565b6040516106189190614149565b60405180910390f35b61063b6004803603810190610636919061331d565b6111a4565b604051610648919061412e565b60405180910390f35b600061065c82611348565b9050919050565b60606002805461067290614794565b80601f016020809104026020016040519081016040528092919081815260200182805461069e90614794565b80156106eb5780601f106106c0576101008083540402835291602001916106eb565b820191906000526020600020905b8154815290600101906020018083116106ce57829003601f168201915b5050505050905090565b6000610700826113c2565b61073f576040517f08c379a000000000000000000000000000000000000000000000000000000000815260040161073690614366565b60405180910390fd5b6006600083815260200190815260200160002060009054906101000a900473ffffffffffffffffffffffffffffffffffffffff169050919050565b600061078582610c9d565b90508073ffffffffffffffffffffffffffffffffffffffff168373ffffffffffffffffffffffffffffffffffffffff1614156107f6576040517f08c379a00000000000000000000000000000000000000000000000000000000081526004016107ed906143c6565b60405180910390fd5b8073ffffffffffffffffffffffffffffffffffffffff1661081561142e565b73ffffffffffffffffffffffffffffffffffffffff16148061084457506108438161083e61142e565b6111a4565b5b610883576040517f08c379a000000000000000000000000000000000000000000000000000000000815260040161087a906142e6565b60405180910390fd5b61088d8383611436565b505050565b60603073ffffffffffffffffffffffffffffffffffffffff166306fdde036040518163ffffffff1660e01b815260040160006040518083038186803b1580156108da57600080fd5b505afa1580156108ee573d6000803e3d6000fd5b505050506040513d6000823e3d601f19601f82011682018060405250810190610917919061358e565b905090565b6000600a80549050905090565b61093a61093461142e565b826114ef565b610979576040517f08c379a0000000000000000000000000000000000000000000000000000000008152600401610970906143e6565b60405180910390fd5b6109848383836115cd565b505050565b6000806000838152602001908152602001600020600101549050919050565b6109b182610989565b6109c2816109bd61142e565b611829565b6109cc83836118c6565b505050565b60006109dc83610d8c565b8210610a1d576040517f08c379a0000000000000000000000000000000000000000000000000000000008152600401610a14906141e6565b60405180910390fd5b600860008473ffffffffffffffffffffffffffffffffffffffff1673ffffffffffffffffffffffffffffffffffffffff168152602001908152602001600020600083815260200190815260200160002054905092915050565b610a7e61142e565b73ffffffffffffffffffffffffffffffffffffffff168173ffffffffffffffffffffffffffffffffffffffff1614610aeb576040517f08c379a0000000000000000000000000000000000000000000000000000000008152600401610ae290614486565b60405180910390fd5b610af582826118fa565b5050565b610b2a7f65d7a28e3265b37a6474929f336521b332c1681b933f6cb9f3376673440d862a610b2561142e565b610eed565b610b69576040517f08c379a0000000000000000000000000000000000000000000000000000000008152600401610b6090614466565b60405180910390fd5b610b7161192e565b565b610b8e83838360405180602001604052806000815250611006565b505050565b610ba4610b9e61142e565b826114ef565b610be3576040517f08c379a0000000000000000000000000000000000000000000000000000000008152600401610bda90614446565b60405180910390fd5b610bec816119d0565b50565b6000610bf961091c565b8210610c3a576040517f08c379a0000000000000000000000000000000000000000000000000000000008152600401610c3190614406565b60405180910390fd5b600a8281548110610c74577f4e487b7100000000000000000000000000000000000000000000000000000000600052603260045260246000fd5b90600052602060002001549050919050565b6000600c60009054906101000a900460ff16905090565b6000806004600084815260200190815260200160002060009054906101000a900473ffffffffffffffffffffffffffffffffffffffff169050600073ffffffffffffffffffffffffffffffffffffffff168173ffffffffffffffffffffffffffffffffffffffff161415610d46576040517f08c379a0000000000000000000000000000000000000000000000000000000008152600401610d3d90614326565b60405180910390fd5b80915050919050565b610d807f9f2df0fed2c77648de5860a4cc508cd0818c85b8b8a1ab4ceeef8d981c8956a6610d7b61142e565b6109a8565b610d8981611ae1565b50565b60008073ffffffffffffffffffffffffffffffffffffffff168273ffffffffffffffffffffffffffffffffffffffff161415610dfd576040517f08c379a0000000000000000000000000000000000000000000000000000000008152600401610df490614306565b60405180910390fd5b600560008373ffffffffffffffffffffffffffffffffffffffff1673ffffffffffffffffffffffffffffffffffffffff168152602001908152602001600020549050919050565b610e757f65d7a28e3265b37a6474929f336521b332c1681b933f6cb9f3376673440d862a610e7061142e565b610eed565b610eb4576040517f08c379a0000000000000000000000000000000000000000000000000000000008152600401610eab90614246565b60405180910390fd5b610ebc611b71565b565b6000610ee58260016000868152602001908152602001600020611c1490919063ffffffff16565b905092915050565b600080600084815260200190815260200160002060000160008373ffffffffffffffffffffffffffffffffffffffff1673ffffffffffffffffffffffffffffffffffffffff16815260200190815260200160002060009054906101000a900460ff16905092915050565b606060038054610f6690614794565b80601f0160208091040260200160405190810160405280929190818152602001828054610f9290614794565b8015610fdf5780601f10610fb457610100808354040283529160200191610fdf565b820191906000526020600020905b815481529060010190602001808311610fc257829003601f168201915b5050505050905090565b6000801b81565b611002610ffb61142e565b8383611c2e565b5050565b61101761101161142e565b836114ef565b611056576040517f08c379a000000000000000000000000000000000000000000000000000000000815260040161104d906143e6565b60405180910390fd5b61106284848484611d9b565b50505050565b6060611073826113c2565b6110b2576040517f08c379a00000000000000000000000000000000000000000000000000000000081526004016110a9906143a6565b60405180910390fd5b60006110bc611df7565b905060008151116110dc5760405180602001604052806000815250611107565b806110e684611e89565b6040516020016110f7929190614069565b6040516020818303038152906040525b915050919050565b600061112c60016000848152602001908152602001600020612036565b9050919050565b7f9f2df0fed2c77648de5860a4cc508cd0818c85b8b8a1ab4ceeef8d981c8956a681565b61116082610989565b6111718161116c61142e565b611829565b61117b83836118fa565b505050565b7f65d7a28e3265b37a6474929f336521b332c1681b933f6cb9f3376673440d862a81565b6000600760008473ffffffffffffffffffffffffffffffffffffffff1673ffffffffffffffffffffffffffffffffffffffff16815260200190815260200160002060008373ffffffffffffffffffffffffffffffffffffffff1673ffffffffffffffffffffffffffffffffffffffff16815260200190815260200160002060009054906101000a900460ff16905092915050565b6112428282610eed565b61131457600160008084815260200190815260200160002060000160008373ffffffffffffffffffffffffffffffffffffffff1673ffffffffffffffffffffffffffffffffffffffff16815260200190815260200160002060006101000a81548160ff0219169083151502179055506112b961142e565b73ffffffffffffffffffffffffffffffffffffffff168173ffffffffffffffffffffffffffffffffffffffff16837f2f8788117e7eff1d82e926ec794901d17c78024a50270940304540a733656f0d60405160405180910390a45b5050565b6000611340836000018373ffffffffffffffffffffffffffffffffffffffff1660001b61204b565b905092915050565b60007f780e9d63000000000000000000000000000000000000000000000000000000007bffffffffffffffffffffffffffffffffffffffffffffffffffffffff1916827bffffffffffffffffffffffffffffffffffffffffffffffffffffffff191614806113bb57506113ba826120bb565b5b9050919050565b60008073ffffffffffffffffffffffffffffffffffffffff166004600084815260200190815260200160002060009054906101000a900473ffffffffffffffffffffffffffffffffffffffff1673ffffffffffffffffffffffffffffffffffffffff1614159050919050565b600033905090565b816006600083815260200190815260200160002060006101000a81548173ffffffffffffffffffffffffffffffffffffffff021916908373ffffffffffffffffffffffffffffffffffffffff160217905550808273ffffffffffffffffffffffffffffffffffffffff166114a983610c9d565b73ffffffffffffffffffffffffffffffffffffffff167f8c5be1e5ebec7d5bd14f71427d1e84f3dd0314c0f7b2291e5b200ac8c7c3b92560405160405180910390a45050565b60006114fa826113c2565b611539576040517f08c379a0000000000000000000000000000000000000000000000000000000008152600401611530906142a6565b60405180910390fd5b600061154483610c9d565b90508073ffffffffffffffffffffffffffffffffffffffff168473ffffffffffffffffffffffffffffffffffffffff1614806115b357508373ffffffffffffffffffffffffffffffffffffffff1661159b846106f5565b73ffffffffffffffffffffffffffffffffffffffff16145b806115c457506115c381856111a4565b5b91505092915050565b8273ffffffffffffffffffffffffffffffffffffffff166115ed82610c9d565b73ffffffffffffffffffffffffffffffffffffffff1614611643576040517f08c379a000000000000000000000000000000000000000000000000000000000815260040161163a90614386565b60405180910390fd5b600073ffffffffffffffffffffffffffffffffffffffff168273ffffffffffffffffffffffffffffffffffffffff1614156116b3576040517f08c379a00000000000000000000000000000000000000000000000000000000081526004016116aa90614266565b60405180910390fd5b6116be83838361219d565b6116c9600082611436565b6001600560008573ffffffffffffffffffffffffffffffffffffffff1673ffffffffffffffffffffffffffffffffffffffff16815260200190815260200160002060008282546117199190614676565b925050819055506001600560008473ffffffffffffffffffffffffffffffffffffffff1673ffffffffffffffffffffffffffffffffffffffff16815260200190815260200160002060008282546117709190614595565b92505081905550816004600083815260200190815260200160002060006101000a81548173ffffffffffffffffffffffffffffffffffffffff021916908373ffffffffffffffffffffffffffffffffffffffff160217905550808273ffffffffffffffffffffffffffffffffffffffff168473ffffffffffffffffffffffffffffffffffffffff167fddf252ad1be2c89b69c2b068fc378daa952ba7f163c4a11628f55a4df523b3ef60405160405180910390a4505050565b6118338282610eed565b6118c2576118588173ffffffffffffffffffffffffffffffffffffffff1660146121ad565b6118668360001c60206121ad565b60405160200161187792919061408d565b6040516020818303038152906040526040517f08c379a00000000000000000000000000000000000000000000000000000000081526004016118b99190614164565b60405180910390fd5b5050565b6118d08282611238565b6118f5816001600085815260200190815260200160002061131890919063ffffffff16565b505050565b61190482826124a7565b611929816001600085815260200190815260200160002061258890919063ffffffff16565b505050565b611936610c86565b611975576040517f08c379a000000000000000000000000000000000000000000000000000000000815260040161196c906141c6565b60405180910390fd5b6000600c60006101000a81548160ff0219169083151502179055507f5db9ee0a495bf2e6ff9c91a7834c1ba4fdd244a5e8aa4e537bd38aeae4b073aa6119b961142e565b6040516119c691906140c7565b60405180910390a1565b60006119db82610c9d565b90506119e98160008461219d565b6119f4600083611436565b6001600560008373ffffffffffffffffffffffffffffffffffffffff1673ffffffffffffffffffffffffffffffffffffffff1681526020019081526020016000206000828254611a449190614676565b925050819055506004600083815260200190815260200160002060006101000a81549073ffffffffffffffffffffffffffffffffffffffff021916905581600073ffffffffffffffffffffffffffffffffffffffff168273ffffffffffffffffffffffffffffffffffffffff167fddf252ad1be2c89b69c2b068fc378daa952ba7f163c4a11628f55a4df523b3ef60405160405180910390a45050565b611b127f9f2df0fed2c77648de5860a4cc508cd0818c85b8b8a1ab4ceeef8d981c8956a6611b0d61142e565b610eed565b611b51576040517f08c379a0000000000000000000000000000000000000000000000000000000008152600401611b4890614426565b60405180910390fd5b611b6481611b5f600d6125b8565b6125c6565b611b6e600d612794565b50565b611b79610c86565b15611bb9576040517f08c379a0000000000000000000000000000000000000000000000000000000008152600401611bb0906142c6565b60405180910390fd5b6001600c60006101000a81548160ff0219169083151502179055507f62e78cea01bee320cd4e420270b5ea74000d11b0c9f74754ebdbfc544b05a258611bfd61142e565b604051611c0a91906140c7565b60405180910390a1565b6000611c2383600001836127aa565b60001c905092915050565b8173ffffffffffffffffffffffffffffffffffffffff168373ffffffffffffffffffffffffffffffffffffffff161415611c9d576040517f08c379a0000000000000000000000000000000000000000000000000000000008152600401611c9490614286565b60405180910390fd5b80600760008573ffffffffffffffffffffffffffffffffffffffff1673ffffffffffffffffffffffffffffffffffffffff16815260200190815260200160002060008473ffffffffffffffffffffffffffffffffffffffff1673ffffffffffffffffffffffffffffffffffffffff16815260200190815260200160002060006101000a81548160ff0219169083151502179055508173ffffffffffffffffffffffffffffffffffffffff168373ffffffffffffffffffffffffffffffffffffffff167f17307eab39ab6107e8899845ad3d59bd9653f200f220920489ca2b5937696c3183604051611d8e919061412e565b60405180910390a3505050565b611da68484846115cd565b611db2848484846127fb565b611df1576040517f08c379a0000000000000000000000000000000000000000000000000000000008152600401611de890614206565b60405180910390fd5b50505050565b6060600e8054611e0690614794565b80601f0160208091040260200160405190810160405280929190818152602001828054611e3290614794565b8015611e7f5780601f10611e5457610100808354040283529160200191611e7f565b820191906000526020600020905b815481529060010190602001808311611e6257829003601f168201915b5050505050905090565b60606000821415611ed1576040518060400160405280600181526020017f30000000000000000000000000000000000000000000000000000000000000008152509050612031565b600082905060005b60008214611f03578080611eec906147c6565b915050600a82611efc91906145eb565b9150611ed9565b60008167ffffffffffffffff811115611f45577f4e487b7100000000000000000000000000000000000000000000000000000000600052604160045260246000fd5b6040519080825280601f01601f191660200182016040528015611f775781602001600182028036833780820191505090505b5090505b6000851461202a57600182611f909190614676565b9150600a85611f9f919061480f565b6030611fab9190614595565b60f81b818381518110611fe7577f4e487b7100000000000000000000000000000000000000000000000000000000600052603260045260246000fd5b60200101907effffffffffffffffffffffffffffffffffffffffffffffffffffffffffffff1916908160001a905350600a8561202391906145eb565b9450611f7b565b8093505050505b919050565b600061204482600001612992565b9050919050565b600061205783836129a3565b6120b05782600001829080600181540180825580915050600190039060005260206000200160009091909190915055826000018054905083600101600084815260200190815260200160002081905550600190506120b5565b600090505b92915050565b60007f80ac58cd000000000000000000000000000000000000000000000000000000007bffffffffffffffffffffffffffffffffffffffffffffffffffffffff1916827bffffffffffffffffffffffffffffffffffffffffffffffffffffffff1916148061218657507f5b5e139f000000000000000000000000000000000000000000000000000000007bffffffffffffffffffffffffffffffffffffffffffffffffffffffff1916827bffffffffffffffffffffffffffffffffffffffffffffffffffffffff1916145b806121965750612195826129c6565b5b9050919050565b6121a8838383612a40565b505050565b6060600060028360026121c0919061461c565b6121ca9190614595565b67ffffffffffffffff811115612209577f4e487b7100000000000000000000000000000000000000000000000000000000600052604160045260246000fd5b6040519080825280601f01601f19166020018201604052801561223b5781602001600182028036833780820191505090505b5090507f300000000000000000000000000000000000000000000000000000000000000081600081518110612299577f4e487b7100000000000000000000000000000000000000000000000000000000600052603260045260246000fd5b60200101907effffffffffffffffffffffffffffffffffffffffffffffffffffffffffffff1916908160001a9053507f780000000000000000000000000000000000000000000000000000000000000081600181518110612323577f4e487b7100000000000000000000000000000000000000000000000000000000600052603260045260246000fd5b60200101907effffffffffffffffffffffffffffffffffffffffffffffffffffffffffffff1916908160001a90535060006001846002612363919061461c565b61236d9190614595565b90505b6001811115612459577f3031323334353637383961626364656600000000000000000000000000000000600f8616601081106123d5577f4e487b7100000000000000000000000000000000000000000000000000000000600052603260045260246000fd5b1a60f81b828281518110612412577f4e487b7100000000000000000000000000000000000000000000000000000000600052603260045260246000fd5b60200101907effffffffffffffffffffffffffffffffffffffffffffffffffffffffffffff1916908160001a905350600485901c9450806124529061476a565b9050612370565b506000841461249d576040517f08c379a000000000000000000000000000000000000000000000000000000000815260040161249490614186565b60405180910390fd5b8091505092915050565b6124b18282610eed565b1561258457600080600084815260200190815260200160002060000160008373ffffffffffffffffffffffffffffffffffffffff1673ffffffffffffffffffffffffffffffffffffffff16815260200190815260200160002060006101000a81548160ff02191690831515021790555061252961142e565b73ffffffffffffffffffffffffffffffffffffffff168173ffffffffffffffffffffffffffffffffffffffff16837ff6391f5c32d9c69d2a47ea670b442974b53935d1edc7fd64eb21e047a839171b60405160405180910390a45b5050565b60006125b0836000018373ffffffffffffffffffffffffffffffffffffffff1660001b612a98565b905092915050565b600081600001549050919050565b600073ffffffffffffffffffffffffffffffffffffffff168273ffffffffffffffffffffffffffffffffffffffff161415612636576040517f08c379a000000000000000000000000000000000000000000000000000000000815260040161262d90614346565b60405180910390fd5b61263f816113c2565b1561267f576040517f08c379a000000000000000000000000000000000000000000000000000000000815260040161267690614226565b60405180910390fd5b61268b6000838361219d565b6001600560008473ffffffffffffffffffffffffffffffffffffffff1673ffffffffffffffffffffffffffffffffffffffff16815260200190815260200160002060008282546126db9190614595565b92505081905550816004600083815260200190815260200160002060006101000a81548173ffffffffffffffffffffffffffffffffffffffff021916908373ffffffffffffffffffffffffffffffffffffffff160217905550808273ffffffffffffffffffffffffffffffffffffffff16600073ffffffffffffffffffffffffffffffffffffffff167fddf252ad1be2c89b69c2b068fc378daa952ba7f163c4a11628f55a4df523b3ef60405160405180910390a45050565b6001816000016000828254019250508190555050565b60008260000182815481106127e8577f4e487b7100000000000000000000000000000000000000000000000000000000600052603260045260246000fd5b9060005260206000200154905092915050565b600061281c8473ffffffffffffffffffffffffffffffffffffffff16612c1e565b15612985578373ffffffffffffffffffffffffffffffffffffffff1663150b7a0261284561142e565b8786866040518563ffffffff1660e01b815260040161286794939291906140e2565b602060405180830381600087803b15801561288157600080fd5b505af19250505080156128b257506040513d601f19601f820116820180604052508101906128af9190613565565b60015b612935573d80600081146128e2576040519150601f19603f3d011682016040523d82523d6000602084013e6128e7565b606091505b5060008151141561292d576040517f08c379a000000000000000000000000000000000000000000000000000000000815260040161292490614206565b60405180910390fd5b805181602001fd5b63150b7a0260e01b7bffffffffffffffffffffffffffffffffffffffffffffffffffffffff1916817bffffffffffffffffffffffffffffffffffffffffffffffffffffffff19161491505061298a565b600190505b949350505050565b600081600001805490509050919050565b600080836001016000848152602001908152602001600020541415905092915050565b60007f5a05180f000000000000000000000000000000000000000000000000000000007bffffffffffffffffffffffffffffffffffffffffffffffffffffffff1916827bffffffffffffffffffffffffffffffffffffffffffffffffffffffff19161480612a395750612a3882612c31565b5b9050919050565b612a4b838383612cab565b612a53610c86565b15612a93576040517f08c379a0000000000000000000000000000000000000000000000000000000008152600401612a8a906141a6565b60405180910390fd5b505050565b60008083600101600084815260200190815260200160002054905060008114612c12576000600182612aca9190614676565b9050600060018660000180549050612ae29190614676565b9050818114612b9d576000866000018281548110612b29577f4e487b7100000000000000000000000000000000000000000000000000000000600052603260045260246000fd5b9060005260206000200154905080876000018481548110612b73577f4e487b7100000000000000000000000000000000000000000000000000000000600052603260045260246000fd5b90600052602060002001819055508387600101600083815260200190815260200160002081905550505b85600001805480612bd7577f4e487b7100000000000000000000000000000000000000000000000000000000600052603160045260246000fd5b600190038181906000526020600020016000905590558560010160008681526020019081526020016000206000905560019350505050612c18565b60009150505b92915050565b600080823b905060008111915050919050565b60007f7965db0b000000000000000000000000000000000000000000000000000000007bffffffffffffffffffffffffffffffffffffffffffffffffffffffff1916827bffffffffffffffffffffffffffffffffffffffffffffffffffffffff19161480612ca45750612ca382612dbf565b5b9050919050565b612cb6838383612e29565b600073ffffffffffffffffffffffffffffffffffffffff168373ffffffffffffffffffffffffffffffffffffffff161415612cf957612cf481612e2e565b612d38565b8173ffffffffffffffffffffffffffffffffffffffff168373ffffffffffffffffffffffffffffffffffffffff1614612d3757612d368382612e77565b5b5b600073ffffffffffffffffffffffffffffffffffffffff168273ffffffffffffffffffffffffffffffffffffffff161415612d7b57612d7681612fe4565b612dba565b8273ffffffffffffffffffffffffffffffffffffffff168273ffffffffffffffffffffffffffffffffffffffff1614612db957612db88282613127565b5b5b505050565b60007f01ffc9a7000000000000000000000000000000000000000000000000000000007bffffffffffffffffffffffffffffffffffffffffffffffffffffffff1916827bffffffffffffffffffffffffffffffffffffffffffffffffffffffff1916149050919050565b505050565b600a80549050600b600083815260200190815260200160002081905550600a81908060018154018082558091505060019003906000526020600020016000909190919091505550565b60006001612e8484610d8c565b612e8e9190614676565b9050600060096000848152602001908152602001600020549050818114612f73576000600860008673ffffffffffffffffffffffffffffffffffffffff1673ffffffffffffffffffffffffffffffffffffffff168152602001908152602001600020600084815260200190815260200160002054905080600860008773ffffffffffffffffffffffffffffffffffffffff1673ffffffffffffffffffffffffffffffffffffffff168152602001908152602001600020600084815260200190815260200160002081905550816009600083815260200190815260200160002081905550505b6009600084815260200190815260200160002060009055600860008573ffffffffffffffffffffffffffffffffffffffff1673ffffffffffffffffffffffffffffffffffffffff16815260200190815260200160002060008381526020019081526020016000206000905550505050565b60006001600a80549050612ff89190614676565b90506000600b60008481526020019081526020016000205490506000600a838154811061304e577f4e487b7100000000000000000000000000000000000000000000000000000000600052603260045260246000fd5b9060005260206000200154905080600a8381548110613096577f4e487b7100000000000000000000000000000000000000000000000000000000600052603260045260246000fd5b906000526020600020018190555081600b600083815260200190815260200160002081905550600b600085815260200190815260200160002060009055600a80548061310b577f4e487b7100000000000000000000000000000000000000000000000000000000600052603160045260246000fd5b6001900381819060005260206000200160009055905550505050565b600061313283610d8c565b905081600860008573ffffffffffffffffffffffffffffffffffffffff1673ffffffffffffffffffffffffffffffffffffffff168152602001908152602001600020600083815260200190815260200160002081905550806009600084815260200190815260200160002081905550505050565b60006131b96131b4846144f2565b6144c1565b9050828152602081018484840111156131d157600080fd5b6131dc848285614728565b509392505050565b60006131f76131f284614522565b6144c1565b90508281526020810184848401111561320f57600080fd5b61321a848285614737565b509392505050565b6000813590506132318161490d565b92915050565b60008135905061324681614924565b92915050565b60008135905061325b8161493b565b92915050565b60008135905061327081614952565b92915050565b60008151905061328581614952565b92915050565b600082601f83011261329c57600080fd5b81356132ac8482602086016131a6565b91505092915050565b600082601f8301126132c657600080fd5b81516132d68482602086016131e4565b91505092915050565b6000813590506132ee81614969565b92915050565b60006020828403121561330657600080fd5b600061331484828501613222565b91505092915050565b6000806040838503121561333057600080fd5b600061333e85828601613222565b925050602061334f85828601613222565b9150509250929050565b60008060006060848603121561336e57600080fd5b600061337c86828701613222565b935050602061338d86828701613222565b925050604061339e868287016132df565b9150509250925092565b600080600080608085870312156133be57600080fd5b60006133cc87828801613222565b94505060206133dd87828801613222565b93505060406133ee878288016132df565b925050606085013567ffffffffffffffff81111561340b57600080fd5b6134178782880161328b565b91505092959194509250565b6000806040838503121561343657600080fd5b600061344485828601613222565b925050602061345585828601613237565b9150509250929050565b6000806040838503121561347257600080fd5b600061348085828601613222565b9250506020613491858286016132df565b9150509250929050565b6000602082840312156134ad57600080fd5b60006134bb8482850161324c565b91505092915050565b600080604083850312156134d757600080fd5b60006134e58582860161324c565b92505060206134f685828601613222565b9150509250929050565b6000806040838503121561351357600080fd5b60006135218582860161324c565b9250506020613532858286016132df565b9150509250929050565b60006020828403121561354e57600080fd5b600061355c84828501613261565b91505092915050565b60006020828403121561357757600080fd5b600061358584828501613276565b91505092915050565b6000602082840312156135a057600080fd5b600082015167ffffffffffffffff8111156135ba57600080fd5b6135c6848285016132b5565b91505092915050565b6000602082840312156135e157600080fd5b60006135ef848285016132df565b91505092915050565b613601816146aa565b82525050565b613610816146bc565b82525050565b61361f816146c8565b82525050565b600061363082614552565b61363a8185614568565b935061364a818560208601614737565b613653816148fc565b840191505092915050565b60006136698261455d565b6136738185614579565b9350613683818560208601614737565b61368c816148fc565b840191505092915050565b60006136a28261455d565b6136ac818561458a565b93506136bc818560208601614737565b80840191505092915050565b60006136d5602083614579565b91507f537472696e67733a20686578206c656e67746820696e73756666696369656e746000830152602082019050919050565b6000613715602b83614579565b91507f4552433732315061757361626c653a20746f6b656e207472616e73666572207760008301527f68696c65207061757365640000000000000000000000000000000000000000006020830152604082019050919050565b600061377b601483614579565b91507f5061757361626c653a206e6f74207061757365640000000000000000000000006000830152602082019050919050565b60006137bb602b83614579565b91507f455243373231456e756d657261626c653a206f776e657220696e646578206f7560008301527f74206f6620626f756e64730000000000000000000000000000000000000000006020830152604082019050919050565b6000613821603283614579565b91507f4552433732313a207472616e7366657220746f206e6f6e20455243373231526560008301527f63656976657220696d706c656d656e74657200000000000000000000000000006020830152604082019050919050565b6000613887601c83614579565b91507f4552433732313a20746f6b656e20616c7265616479206d696e746564000000006000830152602082019050919050565b60006138c7603e83614579565b91507f4552433732315072657365744d696e7465725061757365724175746f49643a2060008301527f6d75737420686176652070617573657220726f6c6520746f20706175736500006020830152604082019050919050565b600061392d602483614579565b91507f4552433732313a207472616e7366657220746f20746865207a65726f2061646460008301527f72657373000000000000000000000000000000000000000000000000000000006020830152604082019050919050565b6000613993601983614579565b91507f4552433732313a20617070726f766520746f2063616c6c6572000000000000006000830152602082019050919050565b60006139d3602c83614579565b91507f4552433732313a206f70657261746f7220717565727920666f72206e6f6e657860008301527f697374656e7420746f6b656e00000000000000000000000000000000000000006020830152604082019050919050565b6000613a39601083614579565b91507f5061757361626c653a20706175736564000000000000000000000000000000006000830152602082019050919050565b6000613a79603883614579565b91507f4552433732313a20617070726f76652063616c6c6572206973206e6f74206f7760008301527f6e6572206e6f7220617070726f76656420666f7220616c6c00000000000000006020830152604082019050919050565b6000613adf602a83614579565b91507f4552433732313a2062616c616e636520717565727920666f7220746865207a6560008301527f726f2061646472657373000000000000000000000000000000000000000000006020830152604082019050919050565b6000613b45602983614579565b91507f4552433732313a206f776e657220717565727920666f72206e6f6e657869737460008301527f656e7420746f6b656e00000000000000000000000000000000000000000000006020830152604082019050919050565b6000613bab602083614579565b91507f4552433732313a206d696e7420746f20746865207a65726f20616464726573736000830152602082019050919050565b6000613beb602c83614579565b91507f4552433732313a20617070726f76656420717565727920666f72206e6f6e657860008301527f697374656e7420746f6b656e00000000000000000000000000000000000000006020830152604082019050919050565b6000613c51602983614579565b91507f4552433732313a207472616e73666572206f6620746f6b656e2074686174206960008301527f73206e6f74206f776e00000000000000000000000000000000000000000000006020830152604082019050919050565b6000613cb7602f83614579565b91507f4552433732314d657461646174613a2055524920717565727920666f72206e6f60008301527f6e6578697374656e7420746f6b656e00000000000000000000000000000000006020830152604082019050919050565b6000613d1d602183614579565b91507f4552433732313a20617070726f76616c20746f2063757272656e74206f776e6560008301527f72000000000000000000000000000000000000000000000000000000000000006020830152604082019050919050565b6000613d83603183614579565b91507f4552433732313a207472616e736665722063616c6c6572206973206e6f74206f60008301527f776e6572206e6f7220617070726f7665640000000000000000000000000000006020830152604082019050919050565b6000613de9602c83614579565b91507f455243373231456e756d657261626c653a20676c6f62616c20696e646578206f60008301527f7574206f6620626f756e647300000000000000000000000000000000000000006020830152604082019050919050565b6000613e4f60178361458a565b91507f416363657373436f6e74726f6c3a206163636f756e74200000000000000000006000830152601782019050919050565b6000613e8f603d83614579565b91507f4552433732315072657365744d696e7465725061757365724175746f49643a2060008301527f6d7573742068617665206d696e74657220726f6c6520746f206d696e740000006020830152604082019050919050565b6000613ef5603083614579565b91507f4552433732314275726e61626c653a2063616c6c6572206973206e6f74206f7760008301527f6e6572206e6f7220617070726f766564000000000000000000000000000000006020830152604082019050919050565b6000613f5b604083614579565b91507f4552433732315072657365744d696e7465725061757365724175746f49643a2060008301527f6d75737420686176652070617573657220726f6c6520746f20756e70617573656020830152604082019050919050565b6000613fc160118361458a565b91507f206973206d697373696e6720726f6c65200000000000000000000000000000006000830152601182019050919050565b6000614001602f83614579565b91507f416363657373436f6e74726f6c3a2063616e206f6e6c792072656e6f756e636560008301527f20726f6c657320666f722073656c6600000000000000000000000000000000006020830152604082019050919050565b6140638161471e565b82525050565b60006140758285613697565b91506140818284613697565b91508190509392505050565b600061409882613e42565b91506140a48285613697565b91506140af82613fb4565b91506140bb8284613697565b91508190509392505050565b60006020820190506140dc60008301846135f8565b92915050565b60006080820190506140f760008301876135f8565b61410460208301866135f8565b614111604083018561405a565b81810360608301526141238184613625565b905095945050505050565b60006020820190506141436000830184613607565b92915050565b600060208201905061415e6000830184613616565b92915050565b6000602082019050818103600083015261417e818461365e565b905092915050565b6000602082019050818103600083015261419f816136c8565b9050919050565b600060208201905081810360008301526141bf81613708565b9050919050565b600060208201905081810360008301526141df8161376e565b9050919050565b600060208201905081810360008301526141ff816137ae565b9050919050565b6000602082019050818103600083015261421f81613814565b9050919050565b6000602082019050818103600083015261423f8161387a565b9050919050565b6000602082019050818103600083015261425f816138ba565b9050919050565b6000602082019050818103600083015261427f81613920565b9050919050565b6000602082019050818103600083015261429f81613986565b9050919050565b600060208201905081810360008301526142bf816139c6565b9050919050565b600060208201905081810360008301526142df81613a2c565b9050919050565b600060208201905081810360008301526142ff81613a6c565b9050919050565b6000602082019050818103600083015261431f81613ad2565b9050919050565b6000602082019050818103600083015261433f81613b38565b9050919050565b6000602082019050818103600083015261435f81613b9e565b9050919050565b6000602082019050818103600083015261437f81613bde565b9050919050565b6000602082019050818103600083015261439f81613c44565b9050919050565b600060208201905081810360008301526143bf81613caa565b9050919050565b600060208201905081810360008301526143df81613d10565b9050919050565b600060208201905081810360008301526143ff81613d76565b9050919050565b6000602082019050818103600083015261441f81613ddc565b9050919050565b6000602082019050818103600083015261443f81613e82565b9050919050565b6000602082019050818103600083015261445f81613ee8565b9050919050565b6000602082019050818103600083015261447f81613f4e565b9050919050565b6000602082019050818103600083015261449f81613ff4565b9050919050565b60006020820190506144bb600083018461405a565b92915050565b6000604051905081810181811067ffffffffffffffff821117156144e8576144e76148cd565b5b8060405250919050565b600067ffffffffffffffff82111561450d5761450c6148cd565b5b601f19601f8301169050602081019050919050565b600067ffffffffffffffff82111561453d5761453c6148cd565b5b601f19601f8301169050602081019050919050565b600081519050919050565b600081519050919050565b600082825260208201905092915050565b600082825260208201905092915050565b600081905092915050565b60006145a08261471e565b91506145ab8361471e565b9250827fffffffffffffffffffffffffffffffffffffffffffffffffffffffffffffffff038211156145e0576145df614840565b5b828201905092915050565b60006145f68261471e565b91506146018361471e565b9250826146115761461061486f565b5b828204905092915050565b60006146278261471e565b91506146328361471e565b9250817fffffffffffffffffffffffffffffffffffffffffffffffffffffffffffffffff048311821515161561466b5761466a614840565b5b828202905092915050565b60006146818261471e565b915061468c8361471e565b92508282101561469f5761469e614840565b5b828203905092915050565b60006146b5826146fe565b9050919050565b60008115159050919050565b6000819050919050565b60007fffffffff0000000000000000000000000000000000000000000000000000000082169050919050565b600073ffffffffffffffffffffffffffffffffffffffff82169050919050565b6000819050919050565b82818337600083830152505050565b60005b8381101561475557808201518184015260208101905061473a565b83811115614764576000848401525b50505050565b60006147758261471e565b9150600082141561478957614788614840565b5b600182039050919050565b600060028204905060018216806147ac57607f821691505b602082108114156147c0576147bf61489e565b5b50919050565b60006147d18261471e565b91507fffffffffffffffffffffffffffffffffffffffffffffffffffffffffffffffff82141561480457614803614840565b5b600182019050919050565b600061481a8261471e565b91506148258361471e565b9250826148355761483461486f565b5b828206905092915050565b7f4e487b7100000000000000000000000000000000000000000000000000000000600052601160045260246000fd5b7f4e487b7100000000000000000000000000000000000000000000000000000000600052601260045260246000fd5b7f4e487b7100000000000000000000000000000000000000000000000000000000600052602260045260246000fd5b7f4e487b7100000000000000000000000000000000000000000000000000000000600052604160045260246000fd5b6000601f19601f8301169050919050565b614916816146aa565b811461492157600080fd5b50565b61492d816146bc565b811461493857600080fd5b50565b614944816146c8565b811461494f57600080fd5b50565b61495b816146d2565b811461496657600080fd5b50565b6149728161471e565b811461497d57600080fd5b5056fea26469706673582212207b8a83bb09edbd41c50339385a45ec7f0aec32e57ee83627b18df9935a1f2b4c64736f6c6343000800003368747470733a2f2f676f6c662d70756e6b732d323032322e6865726f6b756170702e636f6d2f6170692f746f6b656e2f",
  "linkReferences": {},
  "deployedLinkReferences": {}
}